101 021000021 1234567890 2602281230A094101DEST BANK              ORIGIN COMPANY        
5200MyCompany Inc       1234567890CCDPayments    260228   1021000020000001
622021000021000000000001     0000100000Recipient001       0000001000000001
622021000021000000000002     0000100000Recipient002       0000001000000002
622021000021000000000003     0000100000Recipient003       0000001000000003
622021000021000000000004     0000100000Recipient004       0000001000000004
622021000021000000000005     0000100000Recipient005       0000001000000005
622021000021000000000006     0000100000Recipient006       0000001000000006
622021000021000000000007     0000100000Recipient007       0000001000000007
622021000021000000000008     0000100000Recipient008       0000001000000008
622021000021000000000009     0000100000Recipient009       0000001000000009
622021000021000000000010     0000100000Recipient010       0000001000000010
622021000021000000000011     0000100000Recipient011       0000001000000011
622021000021000000000012     0000100000Recipient012       0000001000000012
622021000021000000000013     0000100000Recipient013       0000001000000013
622021000021000000000014     0000100000Recipient014       0000001000000014
622021000021000000000015     0000100000Recipient015       0000001000000015
622021000021000000000016     0000100000Recipient016       0000001000000016
622021000021000000000017     0000100000Recipient017       0000001000000017
622021000021000000000018     0000100000Recipient018       0000001000000018
622021000021000000000019     0000100000Recipient019       0000001000000019
622021000021000000000020     0000100000Recipient020       0000001000000020
622021000021000000000021     0000100000Recipient021       0000001000000021
622021000021000000000022     0000100000Recipient022       0000001000000022
622021000021000000000023     0000100000Recipient023       0000001000000023
622021000021000000000024     0000100000Recipient024       0000001000000024
622021000021000000000025     0000100000Recipient025       0000001000000025
622021000021000000000026     0000100000Recipient026       0000001000000026
622021000021000000000027     0000100000Recipient027       0000001000000027
622021000021000000000028     0000100000Recipient028       0000001000000028
622021000021000000000029     0000100000Recipient029       0000001000000029
622021000021000000000030     0000100000Recipient030       0000001000000030
622021000021000000000031     0000100000Recipient031       0000001000000031
622021000021000000000032     0000100000Recipient032       0000001000000032
622021000021000000000033     0000100000Recipient033       0000001000000033
622021000021000000000034     0000100000Recipient034       0000001000000034
622021000021000000000035     0000100000Recipient035       0000001000000035
622021000021000000000036     0000100000Recipient036       0000001000000036
622021000021000000000037     0000100000Recipient037       0000001000000037
622021000021000000000038     0000100000Recipient038       0000001000000038
622021000021000000000039     0000100000Recipient039       0000001000000039
622021000021000000000040     0000100000Recipient040       0000001000000040
622021000021000000000041     0000100000Recipient041       0000001000000041
622021000021000000000042     0000100000Recipient042       0000001000000042
622021000021000000000043     0000100000Recipient043       0000001000000043
622021000021000000000044     0000100000Recipient044       0000001000000044
622021000021000000000045     0000100000Recipient045       0000001000000045
622021000021000000000046     0000100000Recipient046       0000001000000046
622021000021000000000047     0000100000Recipient047       0000001000000047
622021000021000000000048     0000100000Recipient048       0000001000000048
622021000021000000000049     0000100000Recipient049       0000001000000049
622021000021000000000050     0000100000Recipient050       0000001000000050
622021000021000000000051     0000100000Recipient051       0000001000000051
622021000021000000000052     0000100000Recipient052       0000001000000052
622021000021000000000053     0000100000Recipient053       0000001000000053
622021000021000000000054     0000100000Recipient054       0000001000000054
622021000021000000000055     0000100000Recipient055       0000001000000055
622021000021000000000056     0000100000Recipient056       0000001000000056
622021000021000000000057     0000100000Recipient057       0000001000000057
622021000021000000000058     0000100000Recipient058       0000001000000058
622021000021000000000059     0000100000Recipient059       0000001000000059
622021000021000000000060     0000100000Recipient060       0000001000000060
622021000021000000000061     0000100000Recipient061       0000001000000061
622021000021000000000062     0000100000Recipient062       0000001000000062
622021000021000000000063     0000100000Recipient063       0000001000000063
622021000021000000000064     0000100000Recipient064       0000001000000064
622021000021000000000065     0000100000Recipient065       0000001000000065
622021000021000000000066     0000100000Recipient066       0000001000000066
622021000021000000000067     0000100000Recipient067       0000001000000067
622021000021000000000068     0000100000Recipient068       0000001000000068
622021000021000000000069     0000100000Recipient069       0000001000000069
622021000021000000000070     0000100000Recipient070       0000001000000070
622021000021000000000071     0000100000Recipient071       0000001000000071
622021000021000000000072     0000100000Recipient072       0000001000000072
622021000021000000000073     0000100000Recipient073       0000001000000073
622021000021000000000074     0000100000Recipient074       0000001000000074
622021000021000000000075     0000100000Recipient075       0000001000000075
622021000021000000000076     0000100000Recipient076       0000001000000076
622021000021000000000077     0000100000Recipient077       0000001000000077
622021000021000000000078     0000100000Recipient078       0000001000000078
622021000021000000000079     0000100000Recipient079       0000001000000079
622021000021000000000080     0000100000Recipient080       0000001000000080
622021000021000000000081     0000100000Recipient081       0000001000000081
622021000021000000000082     0000100000Recipient082       0000001000000082
622021000021000000000083     0000100000Recipient083       0000001000000083
622021000021000000000084     0000100000Recipient084       0000001000000084
622021000021000000000085     0000100000Recipient085       0000001000000085
622021000021000000000086     0000100000Recipient086       0000001000000086
622021000021000000000087     0000100000Recipient087       0000001000000087
622021000021000000000088     0000100000Recipient088       0000001000000088
622021000021000000000089     0000100000Recipient089       0000001000000089
622021000021000000000090     0000100000Recipient090       0000001000000090
622021000021000000000091     0000100000Recipient091       0000001000000091
622021000021000000000092     0000100000Recipient092       0000001000000092
622021000021000000000093     0000100000Recipient093       0000001000000093
622021000021000000000094     0000100000Recipient094       0000001000000094
622021000021000000000095     0000100000Recipient095       0000001000000095
622021000021000000000096     0000100000Recipient096       0000001000000096
622021000021000000000097     0000100000Recipient097       0000001000000097
622021000021000000000098     0000100000Recipient098       0000001000000098
622021000021000000000099     0000100000Recipient099       0000001000000099
622021000021000000000100     0000100000Recipient100       0000001000000100
8200000100021000021000000100000000000000000000001234567890                         021000020000001
900000100000100000100021000021000000100000000000000000000000                                       
9999999999999999999999999999999999999999999999999999999999999999999999999999999999999999